{
  "contractName": "RockPaperScissors",
  "abi": [
    {
      "constant": false,
      "inputs": [],
      "name": "stopContract",
      "outputs": [
        {
          "name": "success",
          "type": "bool"
        }
      ],
      "payable": false,
      "stateMutability": "nonpayable",
      "type": "function"
    },
    {
      "constant": false,
      "inputs": [],
      "name": "destroy",
      "outputs": [],
      "payable": false,
      "stateMutability": "nonpayable",
      "type": "function"
    },
    {
      "constant": true,
      "inputs": [],
      "name": "owner",
      "outputs": [
        {
          "name": "",
          "type": "address"
        }
      ],
      "payable": false,
      "stateMutability": "view",
      "type": "function"
    },
    {
      "inputs": [
        {
          "name": "firstAddr",
          "type": "address"
        },
        {
          "name": "secAddr",
          "type": "address"
        }
      ],
      "payable": false,
      "stateMutability": "nonpayable",
      "type": "constructor"
    },
    {
      "anonymous": false,
      "inputs": [
        {
          "indexed": false,
          "name": "",
          "type": "address"
        }
      ],
      "name": "LogChoice",
      "type": "event"
    },
    {
      "anonymous": false,
      "inputs": [
        {
          "indexed": false,
          "name": "",
          "type": "address"
        },
        {
          "indexed": false,
          "name": "",
          "type": "uint256"
        }
      ],
      "name": "SetBenefits",
      "type": "event"
    },
    {
      "anonymous": false,
      "inputs": [
        {
          "indexed": false,
          "name": "",
          "type": "uint256"
        }
      ],
      "name": "LogWinnedChoice",
      "type": "event"
    },
    {
      "anonymous": false,
      "inputs": [
        {
          "indexed": false,
          "name": "",
          "type": "bool"
        }
      ],
      "name": "LogStopContract",
      "type": "event"
    },
    {
      "constant": false,
      "inputs": [],
      "name": "getFirstScore",
      "outputs": [
        {
          "name": "",
          "type": "uint256"
        }
      ],
      "payable": false,
      "stateMutability": "nonpayable",
      "type": "function"
    },
    {
      "constant": false,
      "inputs": [],
      "name": "getSecondScore",
      "outputs": [
        {
          "name": "",
          "type": "uint256"
        }
      ],
      "payable": false,
      "stateMutability": "nonpayable",
      "type": "function"
    },
    {
      "constant": false,
      "inputs": [],
      "name": "checkWinner",
      "outputs": [
        {
          "name": "",
          "type": "string"
        }
      ],
      "payable": false,
      "stateMutability": "nonpayable",
      "type": "function"
    },
    {
      "constant": false,
      "inputs": [],
      "name": "clearChoices",
      "outputs": [],
      "payable": false,
      "stateMutability": "nonpayable",
      "type": "function"
    },
    {
      "constant": false,
      "inputs": [
        {
          "name": "choice",
          "type": "uint256"
        }
      ],
      "name": "makeChoice",
      "outputs": [
        {
          "name": "result",
          "type": "string"
        }
      ],
      "payable": true,
      "stateMutability": "payable",
      "type": "function"
    }
  ],
  "bytecode": "0x60806040526000805460a060020a60ff02191681556003819055600481905560055534801561002d57600080fd5b506040516040806108cf83398101604052805160209091015160008054600160a060020a03338116600160a060020a03199283161790925560018054948316948216949094179093556002805491909216921691909117905561083a806100956000396000f30060806040526004361061008d5763ffffffff7c010000000000000000000000000000000000000000000000000000000060003504166312253a6c81146100925780632d415713146100bb5780635bc565fb146100e257806383197ef0146101625780638da5cb5b146101795780639b6b56b0146101aa578063ad38867e146101bf578063f04d1855146101d4575b600080fd5b34801561009e57600080fd5b506100a76101e9565b604080519115158252519081900360200190f35b3480156100c757600080fd5b506100d061029d565b60408051918252519081900360200190f35b6100ed6004356102a3565b6040805160208082528351818301528351919283929083019185019080838360005b8381101561012757818101518382015260200161010f565b50505050905090810190601f1680156101545780820380516001836020036101000a031916815260200191505b509250505060405180910390f35b34801561016e57600080fd5b5061017761036b565b005b34801561018557600080fd5b5061018e610394565b60408051600160a060020a039092168252519081900360200190f35b3480156101b657600080fd5b506101776103a3565b3480156101cb57600080fd5b506100ed6103d6565b3480156101e057600080fd5b506100d0610640565b6000805433600160a060020a0390811691161461020557600080fd5b60005474010000000000000000000000000000000000000000900460ff161561022d57600080fd5b604080516001815290517fad669115a73c70d2693168fec4c9ac2260d06f00decb18da63f459de6290285e9181900360200190a1506000805474ff000000000000000000000000000000000000000019167401000000000000000000000000000000000000000017905560015b90565b60035490565b60005460609074010000000000000000000000000000000000000000900460ff16156102ce57600080fd5b60408051600160a060020a033316815290517fb84faa08ee35d6c9dd65d0dae77db6cae8c641c35625911e5035f4e18e327a6d9181900360200190a160015433600160a060020a0390811691161480610335575060025433600160a060020a039081169116145b151561034057600080fd5b600160a060020a03331660009081526006602052604090208290556103636103d6565b90505b919050565b60005433600160a060020a0390811691161461038657600080fd5b600054600160a060020a0316ff5b600054600160a060020a031681565b600154600160a060020a039081166000908152600660205260408082208290556002549092168152908120819055600555565b600154600160a060020a031660009081526006602052604090205460609015806104185750600254600160a060020a0316600090815260066020526040902054155b15610457575060408051808201909152601a81527f6f7468657220706c61796572206469646e60742063686f6f7365000000000000602082015261029a565b600254600160a060020a0390811660009081526006602052604080822054600154909316825290205414156104c0575060408051808201909152600481527f6472617700000000000000000000000000000000000000000000000000000000602082015261029a565b60018054600160a060020a031660009081526006602052604090205414806105025750600254600160a060020a03166000908152600660205260409020546001145b801561054b5750600154600160a060020a03166000908152600660205260409020546002148061054b575060028054600160a060020a0316600090815260066020526040902054145b1561055a5760016005556105fb565b600154600160a060020a03166000908152600660205260409020546002148061059c575060028054600160a060020a0316600090815260066020526040902054145b80156105e65750600154600160a060020a0316600090815260066020526040902054600314806105e65750600254600160a060020a03166000908152600660205260409020546003145b156105f55760026005556105fb565b60036005555b60055460408051918252517f39e228a1dc21cea74d9a7808d6eb11d56ba267428ec985af7b81603902fe1bda9181900360200190a161063b600554610646565b905090565b60045490565b600154600160a060020a031660009081526006602052604090205460609082141561073d5760015460408051600160a060020a0392831681523090921631602083015280517f416dcba574d25f9ad84d41d2e7afac145c78e6aa1f0d663f57cb1c6693cd757d9281900390910190a160038054600190810190915554604051600160a060020a039182169130163180156108fc02916000818181858888f193505050501580156106fa573d6000803e3d6000fd5b506107036103a3565b5060408051808201909152600d81527f506c61796572312057696e7321000000000000000000000000000000000000006020820152610366565b60025460408051600160a060020a0392831681523090921631602083015280517f416dcba574d25f9ad84d41d2e7afac145c78e6aa1f0d663f57cb1c6693cd757d9281900390910190a1600480546001019055600254604051600160a060020a039182169130163180156108fc02916000818181858888f193505050501580156107cb573d6000803e3d6000fd5b506107d46103a3565b5060408051808201909152600d81527f506c61796572322057696e73210000000000000000000000000000000000000060208201526103665600a165627a7a72305820ccd0d3f0992de13faec633bbecd15b97ac717ac42ab285cfb4096b4f96e06c930029",
  "source": "pragma solidity ^0.4.4;\n\nimport './Destroyable.sol';\nimport './Stoppable.sol';\n\ncontract RockPaperScissors is Destroyable, Stoppable {\n    address private firstPlayerAddr;\n    address private secondPlayerAddr;\n\n    uint private firstPlayerScore = 0;\n    uint private secondPlayerScore = 0;\n    uint private winningChoince = 0;\n    mapping(address => uint) private choices;\n\n    event LogChoice(address);\n    event SetBenefits(address, uint);\n    event LogWinnedChoice(uint);\n\nconstructor(address firstAddr,address secAddr){\nfirstPlayerAddr = firstAddr;\nsecondPlayerAddr = secAddr;\n}\n\n\nfunction getFirstScore() returns (uint){\nreturn firstPlayerScore;\n}\n\nfunction getSecondScore()returns (uint){\nreturn secondPlayerScore;\n}\n\nfunction checkWinner() returns (string){\nif (choices[firstPlayerAddr] == 0 || choices[secondPlayerAddr] == 0){\nreturn 'other player didn`t choose';\n}\nif (choices[firstPlayerAddr] == choices[secondPlayerAddr]){\nreturn 'draw';\n}else if ((choices[firstPlayerAddr] == 1 || choices[secondPlayerAddr] == 1) && (choices[firstPlayerAddr] == 2 || choices[secondPlayerAddr] == 2)){\nwinningChoince = 1;\n}else if ((choices[firstPlayerAddr] == 2 || choices[secondPlayerAddr] == 2) && (choices[firstPlayerAddr] == 3 || choices[secondPlayerAddr] == 3)){\nwinningChoince = 2;\n}else {\nwinningChoince = 3;\n}\nLogWinnedChoice(winningChoince);\nreturn setWinnerBenefits(winningChoince);\n\n}\n\nfunction setWinnerBenefits(uint winnerInt) private returns (string){\n\nif (choices[firstPlayerAddr] == winnerInt){\nSetBenefits(firstPlayerAddr, this.balance);\nfirstPlayerScore = firstPlayerScore + 1;\nfirstPlayerAddr.transfer(this.balance);\nclearChoices();\nreturn 'Player1 Wins!';\n}else {\nSetBenefits(secondPlayerAddr, this.balance);\nsecondPlayerScore = secondPlayerScore + 1;\nsecondPlayerAddr.transfer(this.balance);\nclearChoices();\nreturn 'Player2 Wins!';\n}\n}\n\nfunction clearChoices(){\nchoices[firstPlayerAddr] = 0;\nchoices[secondPlayerAddr] = 0;\nwinningChoince = 0;\n}\n\n\nfunction makeChoice(uint choice) onlyIfRunning payable returns (string result){\nLogChoice(msg.sender);\nrequire(msg.sender == firstPlayerAddr || msg.sender == secondPlayerAddr);\nchoices[msg.sender] = choice;\nreturn checkWinner();\n}\n\n}",
  "sourcePath": "/root/IdeaProjects/Project3/contracts/RockPapperScissors.sol",
  "compiler": {
    "name": "solc",
    "version": "0.4.23+commit.124ca40d.Emscripten.clang"
  },
  "schemaVersion": "2.0.0",
  "updatedAt": "2018-05-29T13:59:44.452Z"
}