{
  "contractName": "Stoppable",
  "abi": [
    {
      "constant": true,
      "inputs": [],
      "name": "owner",
      "outputs": [
        {
          "name": "",
          "type": "address"
        }
      ],
      "payable": false,
      "stateMutability": "view",
      "type": "function"
    },
    {
      "anonymous": false,
      "inputs": [
        {
          "indexed": false,
          "name": "",
          "type": "bool"
        }
      ],
      "name": "LogStopContract",
      "type": "event"
    },
    {
      "constant": false,
      "inputs": [],
      "name": "stopContract",
      "outputs": [
        {
          "name": "success",
          "type": "bool"
        }
      ],
      "payable": false,
      "stateMutability": "nonpayable",
      "type": "function"
    }
  ],
  "bytecode": "0x608060405260008054600160a060020a033316600160a860020a03199091161790556101bf806100306000396000f30060806040526004361061004b5763ffffffff7c010000000000000000000000000000000000000000000000000000000060003504166312253a6c81146100505780638da5cb5b14610079575b600080fd5b34801561005c57600080fd5b506100656100b7565b604080519115158252519081900360200190f35b34801561008557600080fd5b5061008e610177565b6040805173ffffffffffffffffffffffffffffffffffffffff9092168252519081900360200190f35b600080543373ffffffffffffffffffffffffffffffffffffffff9081169116146100e057600080fd5b60005474010000000000000000000000000000000000000000900460ff161561010857600080fd5b604080516001815290517fad669115a73c70d2693168fec4c9ac2260d06f00decb18da63f459de6290285e9181900360200190a1506000805474ff0000000000000000000000000000000000000000191674010000000000000000000000000000000000000000179055600190565b60005473ffffffffffffffffffffffffffffffffffffffff16815600a165627a7a723058207b807e46393420e685491f4c0f19f662ca1aaa802328730942142a78811cc2ab0029",
  "source": "pragma solidity ^0.4.4;\n\nimport \"./Ownable.sol\";\n\ncontract Stoppable is Ownable {\n    bool private stopped = false;\n\n    event LogStopContract(bool);\n\n    function stopContract() public onlyOwner onlyIfRunning returns (bool success) {\n        LogStopContract(true);\n        stopped = true;\n        return true;\n    }\n    modifier onlyIfRunning {\n        require(!stopped);\n        _;\n    }\n\n\n}\n",
  "sourcePath": "/root/IdeaProjects/Project3/contracts/Stoppable.sol",
  "compiler": {
    "name": "solc",
    "version": "0.4.23+commit.124ca40d.Emscripten.clang"
  },
  "schemaVersion": "2.0.0",
  "updatedAt": "2018-05-29T13:59:36.977Z"
}